:020000041000EA
:1000000000B5324B212058609868022188439860DF
:10001000D860186158612E4B002199600221596106
:100020000121F02299502B49196001219960352056
:1000300000F044F80222904214D00621196600F024
:1000400034F8196E01211966002018661A6600F04E
:100050002CF8196E196E196E052000F02FF8012189
:100060000842F9D1002199601B49196000215960AB
:100070001A491B48016001219960EB211966A021F2
:10008000196600F012F800219960164914480160C1
:100090000121996001BC002800D000471248134993
:1000A000086003C880F30888084703B5996A0420EC
:1000B0000142FBD001200142F8D103BD02B5186610
:1000C0001866FFF7F2FF186E186E02BD00000240BE
:1000D000000000180000070000035F00212200005C
:1000E000F4000018222000A00001001008ED00E03C
:1000F00000000000000000000000000074B24E7A12
:1001000000200420F7010010C3010010C5010010F9
:10011000C1010010C1010010C1010010C101001097
:10012000C1010010C1010010C1010010C701001081
:10013000C1010010C1010010C9010010CB01001065
:10014000CD010010CD010010CD010010CD01001037
:10015000CD010010CD010010CD010010CD01001027
:10016000CD010010CD010010CD010010CD01001017
:10017000CD010010CD010010CD010010CD01001007
:10018000CD010010CD010010CD010010CD010010F7
:10019000CD010010CD010010CD010010CD010010E7
:1001A000CD010010CD010010CD010010CD010010D7
:1001B000CD010010CD010010CD010010CD010010C7
:1001C00000BE00BE00BE00BE00BE00BE00F04BF888
:1001D000103800BEF2EB88711C8A0010448A0010AF
:1001E0003402001090A31AE700202149086006C8D5
:1001F00081F3088810471F48006800282FD10DA4FC
:100200000ECC002902D000F012F8F9E71A491B4A77
:10021000002000E001C19142FCD1194988471949E9
:1002200088471949884700BEFDE701C901C29A42C3
:10023000FBD37047448A0010C0000020CC0B002084
:10024000509500100000042000000420509500107C
:1002500000100420001004200000000070470B482C
:1002600003F00AF80047EFF30580C0B270470000C2
:1002700008ED00E0000000D0D00B0020B0190020F5
:1002800065180010590400106D1900105756000031
:1002900006005250ABB3605350830010060052501A
:1002A000861C030260830010060052505422A29D57
:1002B0006883001005005250DE65F4685095001008
:1002C000F8B5C04610B5064C2378002B07D1054B76
:1002D000002B02D0044800E000BF0123237010BDB2
:1002E000D80B00200000000080750010044B10B5F2
:1002F000002B03D00349044800E000BF10BDC046F6
:1003000000000000DC0B00208075001070B5D024C8
:10031000240680252D026562A561142000F0C2FE2E
:1003200065611E20002100F0A7FE70BD10B5D0232E
:100330001B06802212029A620024D0231B065B68EF
:100340001B0407D5632C05D801340120002100F0DF
:1003500093FEF2E7632C11D80024D0231B065B68C0
:100360001B0407D4632C05D801340120002100F0C0
:1003700083FEF2E7632C03D8002010BD0120FCE7C8
:100380000120FAE770B50025D0231B065B68DB0B64
:10039000012214001C401A4208D0632D05D80135F3
:1003A0000120002100F068FEEEE70024D0231B06A8
:1003B0005B681B0407D4632C05D80134012000219D
:1003C00000F05AFEF2E72820002100F055FED0236D
:1003D0001B065B68DB0B0122100018401A4200D09C
:1003E000012070BD70B50024002504E06400FFF713
:1003F000C9FF04430135072DF8D9200070BD70B541
:1004000088B00600FFF782FFFFF790FF051E09D1B5
:100410000400042C08D8FFF7E5FFA30003AAD0507E
:100420000134F6E701250BE00398049BC318059CF3
:100430001B19069A019294466344079A934202D08C
:10044000280008B070BD03F005FE3060200003F006
:1004500001FE7060F4E70000F0B587B004F032F8F8
:10046000192000F04FF80F2000F04CF8D0231B06A5
:10047000802292045A6204A8FFF7C1FF059F124927
:10048000381C03F0DFFD114903F0D7FD8421C905B5
:1004900003F0CEFD061C049803F004FE04000D00DA
:1004A000301C03F0FFFD02900391381C03F0FAFDAD
:1004B0000090019122002B00054803F0F7FFFA207D
:1004C000C00000F0EFFDD6E7000010410000A040A2
:1004D0008075001010B58300084A944663441C6878
:1004E00040226240C02414408022520113431C6009
:1004F000C000034B9C466044416010BD04C00140F5
:100500000040014010B501238340D02212069362BF
:1005100093610521FFF7DEFF10BD0000EFF31080AF
:1005200072B6034B1B68002BFBD0BFF35F8F704785
:100530002C0100D0BFF35F8F024B00221A6080F3C2
:10054000108870472C0100D0F8B505000C0016008B
:10055000FFF7E4FFE308EF18EA5C072323401100EC
:10056000D940C90706D4012199400A433A70FFF7E0
:10057000E1FFF8BD2100300001F01AFAF0B583B0B8
:100580000600019114001F00FFF7C8FF0500BC42E0
:100590000FD8E208B018B15C072222400B00D3400C
:1005A000DB0701D50134F2E70123934019430170C1
:1005B00001E0012464422800FFF7BCFF002C02DBAD
:1005C000200003B0F0BD019B002BF9D0089801F08A
:1005D000EFF9000000231F2B08D8054A9A18920053
:1005E000BFF35F8F002111600133F4E77047C0460D
:1005F00040000034054A1078431CDBB21370172BFF
:1006000002D9130010221A707047C046B0020020B1
:1006100000B583B00100044B00931F231822034848
:10062000FFF7ACFF03B000BDB0750010A80F0020AD
:10063000034B1B6802201840431E9841C0B270470C
:1006400000C0064070B504000D00062001F0CEFA8F
:10065000C000290002F068FE0300C6097F20184090
:1006600001304008002E05D00D4B9E4214D83500B5
:10067000060000E001256562A6622C34802080011E
:10068000044300232360062001F0B0FA8000A90192
:10069000891902F049FE70BD0026024DEBE7C04605
:1006A000FEFF0000FFFF0000002909D00A22064BD0
:1006B0009C466044434258414000044BC25270473C
:1006C00080225200F3E7C0460080FCBFC016002025
:1006D00070B505000C00062001F088FA002829D02A
:1006E000164B9D4227D08022D203154B1A60154B22
:1006F0001A60154B9B6811009943FAD1002128001C
:10070000FFF7D2FF21002800FFF79CFF2C002C34BC
:10071000E96A60224A406E21114080225201224340
:1007200011600A4B2B6380239B01234310221A6024
:100730000323AB6470BD80221204D6E7008003401F
:1007400000E0004000F0004000C000400103000055
:1007500040BF00200021704710B5002922D0036857
:100760001B7B99421ED8174B9C4661440901836844
:100770009C4661440C684968002A19D003681B7BB9
:100780009A4215D883680F488446624412019A1829
:1007900010685368020001208B4201D80ED000205F
:1007A000C0B210BD084B094A3B21094801F0E2F8EC
:1007B000054B064A3B21064801F0DCF8A242EFD87F
:1007C000EDE7C046FFFFFF0FCC7500102C7800103E
:1007D000F075001010B500291ED0037B99421BD87C
:1007E0004B005B18033B0468A4466344002919D0FE
:1007F000002A1DD0914221D0002A25D0047BA2429C
:1008000022D80468500080180338201881701978A5
:1008100000291FD11A7010BD104B114A4D211148EB
:1008200001F0A8F8104B114A53310E4801F0A2F81C
:100830000F4B0E4A54210B4801F09CF80D4B0B4A0C
:100840005521084801F096F8044B054A4D2105480A
:1008500001F090F841701A70DDE7C046487600104C
:10086000D477001064760010C0760010E077001096
:10087000CC760010D876001070B506000D0014007C
:10088000002914D0002A14D0806873689847002883
:1008900006D0220029003000FFF79CFF280007E067
:1008A0002A0021003000FFF795FF200000E0100033
:1008B00070BD0800FCE70000F0B5CE4600B582B080
:1008C0000500009201930A9C0BAB1B789946002C03
:1008D00029D00268E3B2517B8B4209D10123002B5E
:1008E0001BD1002C39D1200002B080BCB946F0BD2C
:1008F000002B0CD0117B8B4209D811685A00D318F9
:10090000033BCB189B78002BE9D00123E7E73D4B55
:100910003D4A4D213D4801F02DF83D4B3D4A5121C6
:100920003D4801F027F803689C7B002CD9D00ED0FD
:100930001A7B94420BD862001219033A19688C464C
:10094000624452789A73002ACBD1DA73C9E72D4BEF
:100950002D4A4D212D4801F00DF8E7B2002F3AD075
:100960002B681B7B9F4236D82C4BFB181B01AA68B7
:1009700094466344009A1A60019A5A60089A9A60F1
:10098000099ADA602E68002F2BD030D0337B9F423B
:100990002DD87B00DB19033B326894466344002268
:1009A0009A705A701A70717B3A003000FFF764FF3A
:1009B0007073A04297D1287D009A019B00F074FCCF
:1009C000061E02D04B46002B17D00C9B002B00D1EB
:1009D00089E71E7087E7124B124A3B210E4800F050
:1009E000C9FF114B114A7721084800F0C3FF054B9E
:1009F000054A4D21054800F0BDFF2868390000F088
:100A0000B5FEE2E748760010D47700106476001057
:100A1000F07600104C780010F0750010FFFFFF0F0B
:100A2000CC7500102C78001014770010F4770010AB
:100A3000F0B5DE4657464E464546E0B58BB0834698
:100A400000239A468200A54BD65849E0A44BA54AFC
:100A50003B21A54800F08EFF002901D1002864D178
:100A60000121280000F078FEA04217D13A687B6887
:100A700008920993BD68FB689846002D14D0002C9D
:100A800018D033681B7B9C4214D8631EF268D35C79
:100A90009A461B0218433061002015E0934B944A9C
:100AA0007821914800F066FF924B914A7C218E4854
:100AB00000F060FF8A4B904A40218B4800F05AFFBB
:100AC00000239846002500207368BFF35F8F002243
:100AD0001A6089F31088002D30D1002800D1F5E08C
:100AE00000F07CFB02000B0000200021089009911F
:100AF0007068EFF3108972B601680029FCD0BFF36B
:100B00005F8F35686C7B002CDAD09FD0297B8C42BC
:100B10009CD87A4967183F01B1688C4667443868A9
:100B20007968801A9941002996DD3A687B685846B1
:100B300000F0BAFB002398460025C5E753461B0288
:100B40002343994641461800A847069007917268CA
:100B5000EFF3108772B6136859424B41D9B2002B9C
:100B6000F9D1BFF35F8F079B002B25DB079B002B81
:100B70004ADD3369002B4DD04B456CD100F02EFB84
:100B800002000B0006980799801859418B4202D841
:100B900004D1824202D901204042C11700230493AC
:100BA00001330393029443460193009502000B0026
:100BB0003000FFF781FE45E03369002BD6D04B456E
:100BC0001CD1089A099B08929C4606980799121A0C
:100BD0008B419C4503D805D10899914202D9012245
:100BE0005242D317002104910131039102944146EE
:100BF000019100953000FFF75FFE23E0404B3C4A37
:100C00008B21394800F0B6FE069A079B002B01D1D4
:100C1000002AAED13368002C39D05A7B944220D1BF
:100C20000121002933D1DA7B002A36D1DC73002C74
:100C300046D033681B7B9C4242D8F268013C135D6E
:100C400001331355002333617268BFF35F8F136064
:100C500087F3108844E72A4B254A8E21224800F06A
:100C600089FE002C0DD01A7B94420AD8620012191A
:100C7000033A1868844662449278002AD1D0012150
:100C8000CFE7204B204A4D21204800F073FE204B37
:100C9000204A8F211D4800F06DFE002A0AD0197BE2
:100CA0008A4207D851008A18033A19688C46624470
:100CB0005470BBE7134B144A4D21144800F05AFE00
:100CC000074B0D4A4021084800F054FE0BB0F0BC21
:100CD000BB46B246A946A046F0BDC04690160020CD
:100CE000CC7500102C780010F075001018770010EB
:100CF000647800103077001038780010FFFFFF0F85
:100D00003C77001048760010D4770010647600100D
:100D1000787700100078001010B5054B186800288F
:100D200000D010BD034B044A3521044800F022FED8
:100D3000D40F00209877001014780010F075001080
:100D400070B505000E0000F03DFA280000F014FB1D
:100D50001249280000F060FA182003F05DFA040040
:100D6000FFF748FC0E4B9C46604480006060220008
:100D70000C49300000F002FC20601021300003F02C
:100D80004FFAA0600121300003F04AFAE0602575B7
:100D9000AD00054BEC50200070BDC046310A00107C
:100DA00040000034590700109016002010B5064B83
:100DB0001B68002B00D010BD10210320FFF7C0FFDF
:100DC000014B1860F7E7C046D40F0020F0B5DE46AF
:100DD00057464E464546E0B589B0804616001F008E
:100DE000129B9946139B9A4614AB1B789B461F2374
:100DF0006B4400221A703DE0002B09D04246126875
:100E0000127B934204D85A1E4146C968895C4EE061
:100E1000364B374A4021374800F0ACFD0020002A0D
:100E20005DD05B46002B5AD05146C84704000D00E8
:100E300003000B434FD000290CDA32003B00361B75
:100E4000AF41BB4202D815D1B24213D90126764236
:100E5000F7170FE000F0C2F902000B00A4185D4183
:100E6000A94202D804D1A04202D901246442E51764
:100E700026002F0043465A68EFF3108472B61368B9
:100E8000002BFCD0BFF35F8F1F236B440493002320
:100E900003930293534601934B46009332003B0069
:100EA0004046FFF709FDC3B2002BA5D11900424609
:100EB0005268BFF35F8F0025156084F31088002B04
:100EC0000BD01F236B441A78002AA7D10902FF23F5
:100ED00018400843A3E7002001E00120404209B088
:100EE000F0BCBB46B246A946A046F0BDCC7500108A
:100EF00038780010F0750010F8B504004268EFF380
:100F0000108572B6136858424341D8B2002BF9D10C
:100F1000BFF35F8FCBB22268567BB3421BD1012057
:100F2000002846D0206988422BD0090AC9B2002B7C
:100F30002DD02068007B834229D8581EE668305C9B
:100F400088422AD000206368BFF35F8F00221A60B6
:100F500085F31088F8BD002B0DD0167BB3420AD85C
:100F60005E00F618033E1768BC466644B678002E4D
:100F7000D6D00120D4E7124B124A4D21124800F07E
:100F8000F9FC124B124AE021124800F0F3FC124B1C
:100F9000124A40210F4800F0EDFC1900100000F04B
:100FA000E5FB0028CFD10E4B094AE721094800F0A4
:100FB000E1FC23698B42C6D100232361C3E7C0460D
:100FC00048760010D477001064760010AC770010DB
:100FD00080780010F0750010CC7500103878001083
:100FE000D0770010F0B587B006000F0006246442E9
:100FF000E517A4197D418D4202D803D1844201D95D
:10100000002400250494059500F0E8F8241A8D4189
:10101000002D08DC05D03000390000F0EBF807B0F7
:10102000F0BD002CF7D0FFF777FE00230293019369
:101030000F4B0093049A059BFFF7C8FE002806DAC1
:10104000E9E7002300E00023002BE4D120BF04994E
:10105000059A084B5B6A9A42F5D80648806A88422E
:1010600003D29A42EDD00123EEE70123ECE7C0461C
:10107000510700100040054070B504000D0000F05D
:10108000ADF802000B0020002900801859418B4266
:1010900002D804D1824202D901204042C117FFF791
:1010A000A1FF70BD10B5FA2292000023002102F0CA
:1010B0009DFFFFF7E1FF10BD70B584B005000C0087
:1010C000FFF72AFE002302930193194B00932A0095
:1010D0002300FFF77BFE061E12DC164B5B6A9C4268
:1010E00009D8144A926AAA4208D29C4201D001202F
:1010F00002E0002000E0002004B070BD0120FBE70A
:1011000020BFFFF709FE3100FFF7F6FE094B5B6ACF
:101110009C4209D8074A926AAA4207D29C4201D04F
:101120000120E9E70020E7E70020E5E70120E3E709
:10113000510700100040054070B5EFF305833F20D4
:1011400018401038EFF3108472B6194B1B68002B4F
:10115000FBD0BFF35F8F012319008140154A516313
:10116000154A12781500C5402B4214D0114B5D6A08
:101170008300124E9B599D4206D38300104D5B594C
:101180008A430D490A7007E00A4A031D9B009958DB
:101190009950002300E00023BFF35F8F044A002131
:1011A000116084F31088002B00D0984770BDC046B2
:1011B000280100D000400540BD160020A8160020E0
:1011C000980F002010B50100024A0348FFF7BCF950
:1011D00010BDC04698780010BB160020044B5B6A17
:1011E000034A906A1900536A9942F9D17047C04680
:1011F00000400540074B5B6A8B4204D2054B5B6A9B
:10120000FAE7044B5B6A8B4203D1024B9B6A834231
:10121000F7D370470040054070B504000D00EFF3B0
:10122000108672B61B4B1B68002BFBD0BFF35F8F81
:10123000002D1CD0200000F0DFFD174B83420BD0A7
:101240001900200000F0E0FD0121200000F0C4FDA5
:101250000123A340114A1360A400114BE550BFF3D2
:101260005F8F0C4B00221A6086F3108870BDA200BD
:101270000B4B0021D1500122A2400A490B78934325
:101280000B700549200000F0E9FD0021200000F06E
:10129000A3FDE4E7280100D03911001038600540B3
:1012A000980F0020BD160020F0B5DE4600B584B0D2
:1012B0000400150001921E000293FFF78FFF0395B3
:1012C0008E4202D844D1854242D9EFF3108B72B6D8
:1012D000224B1B68002BFBD0BFF35F8F0125A5407D
:1012E0001F4B5D63EFB21F490A783A430A70221D13
:1012F00092000199D150A4001B4A0299A1501B6A87
:101300002B4212D1164B1B6C2B4208D00020BFF38E
:101310005F8F124B00221A608BF3108819E0134B79
:10132000134AB221134800F025FBFFF757FF8E4206
:101330000CD802D1039B834208D8094B1D625D6320
:10134000084A1378BB4313700120E0E70020DEE772
:10135000012004B080BCBB46F0BDC046280100D0CF
:1013600000400540BD160020A8160020BC780010E3
:1013700030790010E078001010B5EFF3108472B6E9
:101380000A4B1B68002BFBD0BFF35F8F0123834008
:10139000074A136207490A789A430A70BFF35F8FBE
:1013A000024B00221A6084F3108810BD280100D07F
:1013B00000400540BD16002010B51F2905D8064B7A
:1013C0009C4661448900016010BD044B044A0A2117
:1013D000044800F0CFFAC046400000344C790010B9
:1013E000C47900107879001010B50400FFF702F9F5
:1013F00001002000FFF7E0FFFF232371BFF35F8FA1
:1014000010BD10B5FFF7D8FFBFF35F8F10BD10B54B
:1014100004000120FFF7FCF801002000FFF7F1FFB6
:1014200010BD000010B500291ED0037B99421BD8C7
:101430004B005B18033B0468A4466344002919D0A1
:10144000002A1DD0914221D0002A25D0047BA2423F
:1014500022D8046850008018033820188170197849
:1014600000291FD11A7010BD104B114A4D2111488F
:1014700000F080FA104B114A53310E4800F07AFA0E
:101480000F4B0E4A54210B4800F074FA0D4B0B4AD7
:101490005521084800F06EFA044B054A4D210548D5
:1014A00000F068FA41701A70DDE7C0464876001017
:1014B0003C7B001064760010C0760010487B001062
:1014C000CC760010D876001070B506000D00140020
:1014D000002914D0002A14D0806873689847002827
:1014E00006D0220029003000FFF79CFF280007E00B
:1014F0002A0021003000FFF795FF200000E01000D7
:1015000070BD0800FCE7000010B5002343730133F1
:101510008373037BC3730121037B8B4215D9CBB249
:10152000002B0CD0027B934209D85A00D218033A00
:101530000468A4466244013353700131ECE70C4B5C
:101540000C4A4D210C4800F015FA002B09D09B42A3
:1015500007D801685A00D318033BCB1800225A70F1
:1015600010BD034B034A4D21034800F003FAC04667
:10157000487600103C7B001064760010F8B505003A
:101580000F0016001021012002F04AFE040005732E
:1015900047600321280002F043FE2060A66020007F
:1015A000FFF7B2FF2000F8BD70B50400081E00D19F
:1015B00070BD002934D0237B994231D84B005B1891
:1015C000033B2268944663445A78002AF0D02DD019
:1015D000237B9A422AD853009B18033B21688C46F0
:1015E00063445D7800215970002825D0237B984200
:1015F00022D843001B18033B21688C46634400211A
:10160000597001002000FFF75FFF0600290020004D
:10161000FFF7CAFF020031002000FFF755FFC7E7C0
:10162000084B094A4D21094800F0A4F9054B064A28
:101630004D21064800F09EF9024B034A4D21034814
:1016400000F098F9487600103C7B0010647600109A
:1016500070B505000C001600002928D02DD0037BA2
:1016600099422AD84B005B18033B026894466344B6
:101670005A78002A27D19A78002A2AD11978FFF7B8
:1016800093FF0300002E03D1EA7B002A27D1EC73DD
:10169000002B37D1002C49D02B7B9C4246D82B689D
:1016A00061000C19033C1C190023637070BD224BB0
:1016B000224A3321224800F05DF9224B224A4D2173
:1016C000224800F057F9224B1C4A35211C4800F0F3
:1016D00051F9204B194A3621194800F04BF9002ADC
:1016E0000AD0297B8A4207D851008A18033A296810
:1016F0008C4662445470CAE7124B134A4D2113487A
:1017000000F038F9002B0BD02A7B934208D8430015
:101710001B18033B2A689446634400229A70B9E779
:10172000084B094A4D21094800F024F9054B064AA7
:101730004D21064800F01EF9787A00105C7B0010FD
:10174000807A0010487600103C7B00106476001010
:10175000C87A0010F07A001070B504000A00457BCA
:101760002900FFF775FF6073280070BD70B5040095
:10177000002966D0437B8B420ED0002911D0037B19
:1017800099420ED84B005B18033B0268D01883784F
:10179000002B0CD1002055E00021FFF7DDFF0120D8
:1017A00050E0294B294A4D21294800F0E3F8002B4D
:1017B0001FD0227B93421CD825685A00D318033BC4
:1017C000EA18EB5C8B421AD0002B1BD0227B934291
:1017D00018D85A00D318033B2268D21853788B428A
:1017E00016D0002BF0D11B4B1B4A63211B4800F085
:1017F000C1F8154B154A4D21154800F0BBF8437848
:10180000137007E0104B114A4D21114800F0B2F857
:101810004378537000238370437000222000FFF749
:1018200017FF0200617B814205D02000FFF74CFECC
:101830006073012006E00A4B074A6921074800F05F
:1018400099F8002070BDC046487600103C7B00101F
:1018500064760010147B0010707B0010807A0010FA
:101860001C7B001070B5234B234A1A60234B244A7B
:101870001A60244B9A68224B9343FAD1224C234B93
:101880009C4202D208CC9847F9E700F01DF91B4BA7
:101890001F4A1A601B4B9B68DB43DB01FAD11D4BCF
:1018A00040229A675A671A67DA661B4C03E02000E9
:1018B000FFF79AFD0834194B9C42F8D3184CA168E5
:1018C000184DC022280002F0BDFCA560EFF3038391
:1018D000FF221A4200D000BEFEF77CFE00F028FC7A
:1018E000FFF764FA104C01E008CC98470F4B9C427C
:1018F000FAD370BD00E00040BFCDFFFF00F0004014
:10190000FE7F3C0000C00040B80B0020C80B002048
:10191000FFFFFF0100F00140B00B0020B80B0020DA
:1019200000ED00E000000020C80B0020CC0B0020E0
:1019300000BEFDE703000A4A1268002A08D0084AE0
:101940001068C318074A934206D2054A13607047CD
:10195000034A05491160F2E701204042F7E7C0461B
:101960000810002000000420B019002010B5FFF777
:10197000DFFF000010B582B00C001900002A0CD067
:10198000084B002A0BD00192009323000200064866
:1019900002F08CFD0120FFF7CBFF044BF1E7034A77
:1019A000F1E7C0467C7B00108C7B0010887B001028
:1019B0000FB400B583B0084802F048FD049B002B2B
:1019C00007D005A90191180002F04EFD034802F06E
:1019D0003DFD0120FFF7ACFFBC7B0010CC7B00106D
:1019E000F8B5D646474680B506000D001700089AA0
:1019F000934243D3190E1802089A002301F0DAFC2F
:101A000080467400A419A4002A4B9C466444636871
:101A1000834200D26060331FDBB29A46012B33D978
:101A2000C0239B012343802212011A60B300224A83
:101A30009958002905D0506901F076FC0130013831
:101A4000FDD17F0122685740E022174080235B01CF
:101A500023431F605246012A21D980239B0123433F
:101A6000802212011A6043466360B600124B089A46
:101A7000F2500120C0BCBA46B046F8BD0F4B104A28
:101A80002E211048FFF776FF012DC9D1C0239B01FD
:101A9000234303221A60A368DB07FCD5D1E7216842
:101AA000694003220A401A60A2680123AB40134236
:101AB000FAD0D2E700800040AC0F0020D07B0010AD
:101AC000387C0010E47B001030B583B00C2000F0AF
:101AD00093F8FEF7ADFD00280DD00023092B05D8A3
:101AE0009900334A334888500133F7E7304B324A84
:101AF0005A6203B030BD314B00229A6700F084F87F
:101B00002F4B01221A602D4B5B6C012BFBD12D4B0F
:101B100003221A60294B9B6B012BFBD1C0239B0135
:101B2000294A1360294A1360294B9A68C0239B01F4
:101B30009343F9D1022400940633264A0121264812
:101B400000F076F800940523244A0121244800F08F
:101B50006FF8244B0093002202210420FFF740FF7E
:101B6000214D00952B00002201210520FFF738FFB1
:101B7000104C00942300002200210720FFF730FFC3
:101B800000942300002200210820FFF729FF0A4BC0
:101B900000932300002200210920FFF721FF009578
:101BA0002B00002200210620FFF71AFFA1E7C04604
:101BB000AC0F0020006CDC021BB70000008000406E
:101BC0003CB0004030B0004000E0004000F0004079
:101BD00000C00040002F68590080024000389C1C63
:101BE00000C00240001BB700405973078000014B42
:101BF000C0587047AC0F002080239B000343014A6C
:101C0000D362704700800540064BAA2212011A6079
:101C10002F22DA60044B054A1A60024B5B68002BE6
:101C2000FBDA7047004002400060024000B0FA005A
:101C3000F8B5CE46474680B50400894690461D005B
:101C400008AB1F7801235B424360002383600C20B4
:101C500001F06AFB06004B46236043011B1A990101
:101C6000C91AC90009188901404601F05DFB02004C
:101C7000103A98235B009A4220D86B1E062B23D87B
:101C80007B1EDBB2062B1FD8AF4223D843461A096E
:101C9000B24225D3A060221DC0239B011343212201
:101CA0001A602268002AFCDA2D043F032F43E76004
:101CB00008221A60C0BCB946B046F8BD0B4B0C4AAE
:101CC0001A210C48FFF756FE0B4B094A1D21094803
:101CD000FFF750FE094B064A23210648FFF74AFE4C
:101CE000074B034A27210348FFF744FE487C0010B6
:101CF000307D0010647C0010B07C0010FC7C001073
:101D0000147D0010074B9B68103080001950BFF302
:101D10005F8FBFF35F8F044B0021196082F310883F
:101D20007047C04600ED00E0240100D010B5091A4C
:101D300004394808090B05D14005400D044B1843F0
:101D400080B210BD034B044A8D210448FFF712FEF8
:101D500000E0FFFF3C7D0010287F00104C7D00104C
:101D600010B5091A04394C08090B08D14905490D69
:101D7000064A11430180064B2343438010BD054BA7
:101D8000054A95210548FFF7F5FDC04600F0FFFF25
:101D900000F8FFFF3C7D0010347F00104C7D0010E8
:101DA00001238340034A10681840431E9841C0B283
:101DB0007047C04600E100E0002904D0034B1860E2
:101DC000034B18607047034B1860FBE780E200E0AC
:101DD00000E100E080E100E010B50123834018003D
:101DE000FFF7EAFF10BD000001238340014A1360A2
:101DF0007047C04600E200E0024B9B681030800054
:101E0000C058704700ED00E070B504000D00EFF31E
:101E1000108672B60C4B1B68002BFBD0BFF35F8F94
:101E20002000FFF7E9FF094B984201D0A84205D1F5
:101E3000320029002000FFF765FF70BD044B054A02
:101E400071210548FFF796FD240100D0CD01001057
:101E5000987D00100C7F00104C7D0010F0B5CE4630
:101E6000474680B583B006000D00EFF3108872B6C8
:101E70005A4B1B68002BFBD0BFF35F8F584B9A68FF
:101E800034001034A300D758564B9F4207D0AF42BE
:101E900000D1A0E00197544BFB1A2F2B09D94246E1
:101EA00039003000FFF72EFF03B0C0BCB946B04682
:101EB000F0BD3000FFF774FF814600213000FFF7CE
:101EC0008BFFBFF35F8FFEF7CEF9002801D084426D
:101ED0001ED10123019C9C43434AA21A92109300F5
:101EE0009B1819015B1819025B181904591849004D
:101EF00089180022A368AB4212D00622A256002AFB
:101F00000DDB53009B189B002200374CE418F1E7CF
:101F10008E21364B364A49003648FFF72BFD22000A
:101F2000AB4251D106256557002D39DB6B005B199B
:101F30009A002D4B9B189A68A260DA79E27106220A
:101F40009A56A2719B795BB2002B10DABD20000279
:101F5000A0806B005B199B00234AD318264A117896
:101F60009971157049463000FFF736FF97E7201D3D
:101F70006B005B199B001C4A9B181A1D9B88D90A91
:101F80001C2907D159054915023149005118FFF79D
:101F9000CDFEDDE7194B1A4A9B211648FFF7EAFCF4
:101FA00000280CD1002A08D0FF239371154B938091
:101FB000114B1A78A2711970D4E70A4FF8E7201D67
:101FC0001149FFF7CDFECDE75221104B084AFF31F2
:101FD0000848FFF7CFFC034F61E7C046240100D05B
:101FE00000ED00E0CD010010B4020020AC7E001036
:101FF0005C7F00104C7D0010BC160020947E001009
:102000004C7F001000BDFFFFEE020020D07E0010CC
:1020100010B5032304009C43064A94466444226896
:102020001840C000FC3383409A43130081400B43A7
:10203000236010BD00E400E0F8B50400012505436D
:10204000304BEB1A2F2B2DD8FEF70DF9002830D08E
:10205000EFF3108172B62C4B1B68002BFBD0BFF343
:102060005F8F284EA61BB610B20092191301D2182A
:102070001302D2181304D3185B009B19234A9268E9
:1020800080001258AA421BD00020032832D84200F8
:10209000121892001B4DAA18927952B29A421FD080
:1020A0000130F2E7B7211A4B1A4A49001A48FFF7E4
:1020B00061FC7221194B174AFF311748FFF75AFC90
:1020C000124A9268164D1550164A1078A071137076
:1020D000BFF35F8F0C4B00221A6081F31088F8BDAC
:1020E0002E0042001518AD007519FF27AF710E487C
:1020F000A880E9E7C1210D4B064A49000648FFF7D1
:1021000039FCC046B4020020240100D000ED00E0FC
:10211000D87E0010707F00104C7D0010007F0010F2
:10212000CD010010BC16002000BDFFFF147B001085
:1021300010B500241F2C05D880212000FFF768FF70
:102140000134F7E710BD704710B5002802D00B68C6
:102150004968984710BD010000200A681378303B99
:10216000DBB2092B08D883001B185B00501C0860E9
:102170001078C0183038F0E77047F0B5DE465746A3
:102180004E464546E0B583B093461F000C9B9A46E9
:102190000D9C0E9B99460F9B9B0703D0B8460F00E2
:1021A000060022E00192A34688464E46B946070043
:1021B000B44207D2551C4B4641462020B847013453
:1021C0002A00F5E73D004F465C46019B9B46B14621
:1021D0004646B84637002E0007E0013C551C5346E2
:1021E000185D43463900B0472A00002CF5D1350070
:1021F0003E0047460F9B9B0707D4100003B0F0BC7E
:10220000BB46B246A946A046F0BDB0464E46B946CA
:102210002F005D46531BB342EFD2541C4B46414640
:102220002020B8472200F5E7F0B5CE46474680B5F6
:1022300085B0944698460C9D0D9C0EAB1B78994634
:10224000109A119B129EB7071BD4002B08D0F707DA
:1022500006D54F46002F02D10C37374200D0013B44
:10226000944208D21F2C06D830272F550134F7E7A7
:1022700030272F550134F70703D59C4201D21F2C7C
:10228000F6D9F70615D5770505D4002C03D094426E
:1022900024D09C4222D00F9A102A2BD00F9A102AB9
:1022A00030D00F9A022A35D01F2C02D830222A555E
:1022B00001341F2C05D84A46002A31D02D222A5538
:1022C0000134039602930194009543466246FFF75A
:1022D00054FF05B0C0BCB946B046F0BD621E012C2B
:1022E00006D00F9F102F01D01400D4E7023CD2E794
:1022F0001400D0E7B206D1D41F2CCFD878222A55AB
:102300000134D1E7B206CCD51F2CCAD858222A55A1
:102310000134C9E71F2CC7D860322A550134C3E7FE
:10232000720703D52B222A550134CAE73207C8D5D4
:1023300020222A550134C4E7F0B5DE4657464E4602
:102340004546E0B593B081468A46089209931CAB96
:1023500010CB1B789B461E9D219B9846002C03D1D9
:10236000102342469A4390468023DB0046461E4097
:1023700042461A4212D0002C22D000260EE0303302
:10238000D9B2771C0AAB99552900200000F0CCFF88
:10239000AC4216D31F2F14D83E00040029002000A1
:1023A00000F0C2FFCBB2092BE9D94246920605D50F
:1023B0004121C918C9B20A39C9B2E2E76121F8E777
:1023C000270043460693209B05931F9B0493039588
:1023D0005B46029301970AAB0093099B089A51460A
:1023E0004846FFF721FF13B0F0BCBB46B246A946F2
:1023F000A046F0BDF0B5DE4657464E464546E0B530
:1024000095B0089009910A920B931E9E1F9C20ABD9
:102410001B789B46229B9946239D269B9A46330018
:10242000234303D1103352469A4392468023DB0064
:1024300057461F4052461A4219D0330023432DD02D
:10244000002714E03033DAB27B1C98460CABDA5527
:102450004A462B003000210000F0ACFFA5421FD8F7
:1024600019D043461F2B1BD8474606000C004A468E
:102470002B003000210000F09DFFD3B2092BE1D9E1
:102480005246920605D54122D218D2B20A3AD2B2A9
:10249000DAE76122F8E7B145E3D901E00023984685
:1024A00053460693259B0593249B04934B46039325
:1024B0005B460293434601930CAB00930B9B0A9A35
:1024C00009990898FFF7B0FE15B0F0BCBB46B246BC
:1024D000A946A046F0BD0000F0B5DE4657464E4680
:1024E0004546E0B591B0824689460E9298461A9CC0
:1024F00007941B9D089522002B002000290001F065
:10250000D0F9002800D007E101225242D54B20002B
:10251000290001F0C1F9002800D0FDE0012252425B
:10252000D14B2000290001F0A1F9002800D0F3E0F0
:1025300000220023079C2000089D290001F096F945
:10254000002800D0FFE0079A089B09920693802399
:10255000DB001E9A1A400F921E9A1A4201D10623DE
:102560001C93099B069A100D4005400DBF498C46EF
:1025700060441203120B1E00BD4B13431F0001F0F9
:10258000A3F9BC4ABC4B01F02FF9BC4ABC4B01F08B
:1025900019F904000D000022BA4B3000390001F097
:1025A00008F9B94AB94B01F01FF902000B002000ED
:1025B000290001F007F901F09FF9834601F084F941
:1025C00004000D00B24AB34B01F00EF90022B24BE9
:1025D00001F0F8F801F090F90600B04AB04B200085
:1025E000290001F001F904000D000A96300001F005
:1025F0006BF9AC4AAC4B01F0F7F802000B0020007D
:10260000290001F0D6F804000D0002000B0001F0D3
:10261000EBF806000F000A99A44B9C46614409059B
:102620000B9100210A9122002B002000290001F0CB
:10263000C9F80C900D9122002B0000208021C905C3
:1026400001F0B7F804000D000022994B300039006A
:1026500001F0C1F80022974B01F0B4F802000B0022
:102660003000390001F0B7F80022934B01F0AAF8CE
:1026700002000B003000390001F0ADF802000B0041
:102680002000290001F09EF802000B000C980D9923
:1026900001F0A1F80022764B01F094F80A9A0B9B06
:1026A00001F0A2F804000D000A940B95099A069B0C
:1026B00001F0F2F800280BD001235B429C46E34472
:1026C00000227C4B2000290001F085F80A900B9134
:1026D0005B466333C62B3DD804241E9B1B0545D5A2
:1026E000764A774B099E3000069D290001F0CCF810
:1026F000002800D19EE00022724B3000290001F03A
:10270000B5F8002800D195E01C9B5B4524DD5A46B6
:10271000981A431E1C9321E01E9B04931D9B039358
:102720001C9B0293079A089B0092019343460E9AC2
:102730004946504600F0CAF811B0F0BCBB46B2465C
:10274000A946A046F0BD099480231B069C4665441B
:102750000695FCE60524C0E700231C938023DB00DC
:102760001E9A1A431E92002400239B461D9B9C42E6
:102770006AD21D1B02231E9E1E401E9A134202D0C7
:10278000002C00D000255B46002B07D00A9A0B9B3B
:102790000998069901F01FF809900691002200237C
:1027A0000798089901F062F800284FD1464B1E9A0D
:1027B0001340049303951C9B0293099A069B009275
:1027C000019343460E9A4946504600F07FF8002C8C
:1027D000B2D01E9B9B0640D54527451C43460200B0
:1027E00049463800D0475B46DA179B18534005220C
:1027F0000592013C0494002203920A3202925A4646
:10280000D00F0190009343462A0049465046FFF7F7
:1028100093FD002E00D18FE7020057460E9E1D9DAE
:10282000931BAB421BD2541C434649462020B84759
:102830002200F5E71C9B002B98D00F9B002B95D016
:102840001C9B013B1C9391E7002593E70699802090
:102850000006844661440691A8E76527BDE710009D
:102860006AE7C046FFFFEF7FFFFFEFFF01FCFFFFBE
:102870000000F03FFB799F501344D33FB3C8608BF7
:10288000288AC63F0000F83F61436F63A787D23FA5
:1028900071A379094F930A400000E03F1655B5BB7C
:1028A000B16B0240EF39FAFE422EE63FFF03000013
:1028B00000002C4000002440000018402D431CEB79
:1028C000E2361A3F80842E41FFF7FFFFF0B5DE4667
:1028D00057464E464546E0B595B00690079193465B
:1028E0009946209F1E9A1F9B1000190000F0D9FFE7
:1028F000002831D101225242BF4B1E981F9900F08F
:10290000B5FF002837D101225242BC4B1E981F99B7
:1029100000F0C2FF00283DD10022B94B1E981F993C
:1029200000F0BAFF002850D10022B64B1E981F9924
:1029300000F09CFF002848D1002200231E981F9918
:1029400000F094FF002850D100239846229B5B059D
:1029500000D4B6E0002458E0229B0393219B02930D
:1029600003230193A84B00934B465A4607990698B8
:10297000FFF703FC0EE1229B0393219B02930423A8
:102980000193A24B00934B465A4607990698FFF7CE
:10299000F4FBFFE00423229A1A4022990B4210D044
:1029A0009B4B002A0FD00422229903912199029176
:1029B000019200934B465A4607990698FFF7DDFBB4
:1029C000E8E0944BEDE70322EEE7229B0493219B82
:1029D000039302971E9B1F9C009301944B465A46FB
:1029E00007990698FFF778FDD4E01E9A1F9B0020F8
:1029F000002100F0DEFE1E901F9101239846A5E7FE
:102A00000CAB30221A55013F01341F2C01D8092F7D
:102A1000F6D81E981F9900F06FFF050000F054FFD4
:102A200002000B001E981F9900F0C3FEFA007A4BBB
:102A30009B181A685B680A920B9300F0D5FE089009
:102A4000099100F07DFF060000F03AFF02000B0044
:102A50000898099900F0ADFE0890099100226F4B8B
:102A600000F01AFF00282ED00136300000F028FFB9
:102A700002000B000A980B9900F0FEFE002801D01E
:102A800001350026002F2CD1280000F01DFF020088
:102A90000B001E981F9900F08CFE06000F0000220C
:102AA0005E4B00F0E3FE002842D100225B4B300079
:102AB000390000F0F1FE00283AD1EB0738D5013596
:102AC00036E0062746E70022544B0898099900F0A3
:102AD000CDFE0028D6D1002E01D0F307D2D5013685
:102AE000D0E7AA461F2C11D8013F0A21300000F080
:102AF0001BFC651C30310CAB19550A21300000F06D
:102B000013FC092E26D906002C00EBE7554604E0FD
:102B10000CAA302111551F0001341F2C02D87B1E36
:102B2000002FF5D11F2C03D80CAB2E221A550134DF
:102B30001F2C14D80A21280000F0CAFB661C303173
:102B40000CAB19550A21280000F0C2FB051E05D068
:102B50003400EDE72B0055461C00DEE7340003236C
:102B6000229A1340012B1CD01F2C06D84346002B61
:102B700032D00CAB2D221A550134229B0393219B9A
:102B8000029301940CAB00934B465A460799069862
:102B9000FFF7F3FA15B0F0BCBB46B246A946A04613
:102BA000F0BD219B002B13D04346002B02D10C33E8
:102BB00013420FD0219B013B2193190003E00CAB82
:102BC00030221A5501348C42CED21F2CF7D9CBE7D4
:102BD0002199F8E72199F6E7229B5B0704D50CAB16
:102BE0002B221A550134C8E7229B1B07C5D50CAB15
:102BF00020221A550134C0E7FFFFEFFFFFFFEF7FF0
:102C000065CDCD4165CDCDC1987F00109C7F001072
:102C1000907F00108C7F0010888100100000E03F42
:102C2000F0B5DE4657464E464546E0B593B082467F
:102C30008B4690461193002900D1ECE200275546BF
:102C4000119B1878002800D1E8E2252809D07C1CC7
:102C500043463A005946A847119B01331193270078
:102C6000EEE70133119300241DE00B00303BDBB293
:102C7000092B37D92A293AD000230A93119B1A78B5
:102C80002E2A44D000239A46119A1378683BD9B271
:102C9000122900D980E08B00CB49CB589F460123F5
:102CA0001C4301321192119A11780B00203BD8B2CB
:102CB0001028DAD88300C548C3589F4602231C4316
:102CC00001321192EFE704231C4301321192EAE72B
:102CD00008231C4301321192E5E710231C43013203
:102CE0001192E0E711A8FFF736FA0A90C6E71C9B9D
:102CF0001A1D1C921868002804DB0A90119B0133EE
:102D00001193BBE702231C4343420A93F6E7802258
:102D1000D20014435A1C11925A781300303BDBB294
:102D2000092B04D92A2A07D000239A46ACE711A818
:102D3000FFF711FA8246A7E71C9B1A1D1C92186820
:102D4000002804DB8246119B013311939CE700208D
:102D5000F8E780235B002343511C119152786C2AC1
:102D600001D01C0018E0C0239B001C4301311191CD
:102D700012E080232343511C11915278682A01D01C
:102D80001C0009E0C0231C430131119104E08023A1
:102D90005B001C4301321192119B18780300253B04
:102DA000DAB2532A00D92CE29300894AD3589F46BD
:102DB00080239B001C4301321192EDE780235B00CE
:102DC0001C4301321192E7E7782809D0582838D0FF
:102DD0006F2838D0622838D010239C430A2600E0A0
:102DE0001026582833D0692803D0642801D00C223B
:102DF0009443630501D50122944369282AD06428AD
:102E000028D0A30500D59FE0E30500D5B8E0630610
:102E100000D4CAE01C9A111D1C911168FF220A40BF
:102E200005940A9B0493534603930296002301934F
:102E3000009243463A0059462800FFF77DFA070002
:102E400027E01026CDE70826CBE70226C9E7202297
:102E50001443C8E7A30520D4E30550D4630666D520
:102E60001C9A111D1C911168FF220A40D317D1181A
:102E7000594005940A9B0493534603930296D20F3C
:102E80000192009143463A0059462800FFF754FA50
:102E90000700119B01331193D2E61C9BDA1D072119
:102EA0008A43110008311C91116853689C46DB1756
:102EB0000C930D930C9A0D9B100048400E906246A7
:102EC00053400F930E980F990C9A0D9B801A9941BD
:102ED0000E900F9108940A9B07935346069304960D
:102EE000002305936346DA0F029200900191434656
:102EF0003A0059462800FFF77DFA0700C9E71C9AF7
:102F0000111D1C911268D317D118594005940A9BC2
:102F10000493534603930296D20F019200914346C5
:102F20003A0059462800FFF707FA0700B1E72306E1
:102F300005D51C9A111D1C910023D25E96E71C9AA0
:102F4000111D1C91126891E71C9BDA1D07218A4311
:102F5000110008311C9108940A9B0793534606936D
:102F60000496002305930293136854680093019418
:102F700043463A0059462800FFF73CFA070088E725
:102F80001C9A111D1C9105940A9B049353460393AC
:102F90000296002301931368009343463A00594672
:102FA0002800FFF7C9F9070073E7230606D51C9A26
:102FB000111D1C9112681204120C31E71C9A111D8C
:102FC0001C9112682CE7C046A47F0010F07F00100F
:102FD0003480001046281AD01C9B073307229343E5
:102FE0001A0008321C9204940A9A039252460292E2
:102FF0005C681B680093019443463A0059462800D8
:10300000FFF764FC0700119B0133119318E620239E
:103010001C43E1E7672801D0472802D180231B0128
:103020001C43452801D0472801D120231C431C9B69
:103030000733072293431A0008321C9204940A9A19
:103040000392524602925C681B68009301944346C7
:103050003A0059462800FFF73FFA0700119B013359
:103060001193EDE502231A002240924623421FD01D
:1030700001241C9B1A1D1C927A1C91461878434609
:103080003A005946A8475346002B16D1119B0133ED
:1030900011934F46D4E5561C434659462020B84765
:1030A000230032005C1C9D42F5D83D001700E0E78C
:1030B00001233A002F000A9DF4E74A46A9460A9DDB
:1030C00006E0571C434659462020C84734003A00C2
:1030D000661CA542F5D84D469146D7E71C9B1A1DA4
:1030E0001C921B6899465346002B00D1013B4E466B
:1030F00001E0013613003278002A02D05A1E002B5C
:10310000F7D14B46F21A10928023DB0026001E40B6
:103110001C4203D0524501D95346109302231A0092
:1031200022400B92234205D03A0037004C46A94674
:10313000554620E03A00109B5F46B3462E0006E05D
:10314000551C434639002020B04723002A005C1C50
:103150000A999942F4D835005E46BB461094370070
:103160004C46A946554606E01D000134561C434610
:103170005946C84732002078002804D0002FF4D0E8
:103180006B1E002DF0D117004D460B9B002B03D179
:10319000119B0133119353E50A9F109B06E0561CC7
:1031A000434659462020A847230032005C1C9F421A
:1031B000F5D81700ECE721231C431C9B1A1D1C9219
:1031C0001B6800930594082304935346039310232C
:1031D00002930023019343463A0059462800FFF723
:1031E000ABF80700119B0133119329E57C1C434682
:1031F0003A0059462520A847119B01331193270017
:103200001EE57C1C43463A005946A847119B0133F2
:103210001193270014E50B4B9A460FE5AA46474544
:103220000DD343465A1E434659460020D047380026
:1032300013B0F0BCBB46B246A946A046F0BD3A006A
:10324000F1E7C0464721001000B585B00290039118
:103250000121009313004A4202A90248FFF7E0FC53
:1032600005B000BD4921001001480421014B184759
:10327000000300209932001010B5010018231B88AC
:1032800014221088984710BD10B5010018231B8820
:1032900016221088984710BDF0B5C64600B5070045
:1032A0000E0000250123984600E00135B5420AD200
:1032B000AC003C192068FFF7DFFF20600028F4D144
:1032C00000239846F1E7404680BCB846F0BD0000B8
:1032D000144A936F9B0815D29066D166002905D0D9
:1032E000FFE7FFE7FFE7516F106F704704B58021DC
:1032F0000906C2175140002800D0C84304F020F945
:10330000002104BD936F5B08FDD3F0B5946ED56EBC
:10331000576F166FFFF7E0FF9466D566576716671D
:10332000F0BD0000000000D0134A936F9B0813D239
:1033300010665166002905D0FFE7FFE7FFE7516FF0
:10334000106F704704B5002801D00020C04304F07E
:10335000F7F8002104BDC046936F5B08FDD3F0B5BC
:10336000946ED56E576F166FFFF7E2FF9466D566C1
:1033700057671667F0BD0000000000D094464E4A23
:10338000926F9208624601D230E0C046F0B54A4ED4
:10339000B56F6D08FCD3346E756E776F366F00F0C5
:1033A00025F89446444A1466556657671667624680
:1033B000F0BDC0469446404A926F9208624601D2E0
:1033C00058E0C046F0B53C4EB56F6D08FCD3346E86
:1033D000756E776F366F00F04DF89446364A146676
:1033E0005566576716676246F0BDC046002B24DB62
:1033F00011D000293EDA00B5C943404200D1013165
:1034000000F038F8C943404200D10131DB43524259
:1034100000D1013300BD002AEBD1002801D10029E1
:1034200005D00020C90FC90701D1C043410800B52C
:1034300004F07EF80022002300BD00B500290ADB5D
:10344000DB43524200D1013300F014F8C94340423B
:1034500000D1013100BDC943404200D10131DB43FD
:10346000524200D1013300F005F8DB43524200D153
:10347000013300BD002923D1002B18D1002A0CD024
:10348000BC460D4F38667A6600210023FFE7FFE750
:10349000FFE77A6F386F67467047002801D007480A
:1034A000010000B504F044F80022002300BD020032
:1034B0000B00002000217047000000D0FFFFFFFF3D
:1034C000002B00D0BDE0130C26D1002AE7D080B439
:1034D000104F39667A66FFE7FFE730B4040C7B6F64
:1034E000396F1B0423433B66FFE7FFE7FFE7C04656
:1034F00084B27B6F3D6F1B0423433B66FFE7FFE70E
:10350000C04600232C042D0C7A6F386F00196941D6
:10351000B0BC7047000000D0F0B594460025140EF2
:1035200001D112020835140F01D112010435940F94
:1035300001D192000235D40F01D152000135D40BD4
:103540000134254F7C66254C3C660E0C93B2FFE798
:10355000FFE7FFE73C6F6643360C7703BE467343D5
:10356000DF0B5B04C01AB941130C7343DB18C91A93
:10357000CE086643360CB64493B273431F0F1B014B
:10358000C01AB941130C73431F0B1B05C01AB94174
:10359000860D8F023E436643360C092D24DB520A0A
:1035A0007243801A7703460A6643360C16235B1B68
:1035B000DE40DF40BF1964466643821B7046043517
:1035C00006330100D940A840C01900D30131A242FE
:1035D00006D20023F0BD0000000000D0FFFFFFFF77
:1035E000121B0130F3D3F1E709277F1BFE4064462D
:1035F000A2B27243801A00D20139220C7243130C1A
:103600001204821A99410B007046043513370100E9
:10361000F940A840801900D30131002B02D1A24209
:103620000AD2F0BD013000D30131121BFAD2013BA6
:10363000F8D1A24200D2F0BD013000D30131121BFB
:10364000F7E7F0B51C0C00D080E00CB400251C0A94
:1036500004D11B02160E3343120208351C0B04D191
:103660001B01160F3343120104359C0B04D19B0040
:10367000960F334392000235DC0B02D192185B4166
:1036800001351C00971864410134464F7C66464C56
:103690003C660E0CFFE7FFE7FFE7C0463C6F664362
:1036A000360C7703BE4697B27743C01B00D2013970
:1036B000C01B00D201399FB27743C91BC91B170C2D
:1036C00077437E04FF0B801BB941CE086643360C5E
:1036D0000C2D33DBB644120B1F053A431B0B97B27C
:1036E0007743C01B00D201399FB27743C91B170C27
:1036F00077433E043F0C801BB941860D8F023E4349
:10370000664329277F1BFE400C3D7746AF40BF191B
:1037100030BCA2B2ABB272437343801A9941220CFF
:103720007243130C1204801A994102000B000137F6
:10373000001BA941F9D2781E0021F0BD0C277F1B88
:10374000FE4077467F0BAF40FF19E0E700245D1C89
:1037500007D0144F7D663966FFE7FFE7FFE7FFE715
:103760003C6F95B29EB265436643401BB141150C58
:103770001E0C6543664336042F0C3E432D04401B4C
:10378000B141994204D202000B0020000021F0BD9B
:1037900001D19042F7D3801A994101349942F2D372
:1037A000F6E70000000000D0FFFFFFFF4840414067
:1037B000484018B4114B5B68FC46019308BD04DF18
:1037C000473A001018B40D4B1B68FC46019308BD26
:1037D00000DF513A001018B4084BDB68FC46019337
:1037E00008BD0CDF093D001018B4044B9B68FC4673
:1037F000019308BD08DFAD3B00100000C416002097
:10380000FFB550404240504059404B40594000E0C5
:10381000FFB5154F4C00640D03D0BC4204D10C031E
:1038200014D80020090D09055C00640D03D0BC42CA
:1038300004D11C030AD800221B0D1B0501264B4096
:1038400009D44B4003D58B4200D18242FFBD99423F
:10385000FCD19042FFBD0B43DB1803431343F5D06B
:10386000C9434918FFBD0000FF07000000B5FFF77E
:10387000CFFF804100BDC04600B5FFF7C9FF01D9A9
:10388000002000BD012000BD00B5FFF7B9FF01D940
:10389000002000BD012000BD00B5FFF7B1FF804151
:1038A00000BD012040054A00121804D85A00121821
:1038B00001D80020704701207047002070470000A9
:1038C0000021002805D17047C1174840401AFAD09E
:1038D000C90713B5064B1B6898470CBC441CA24093
:1038E0001005120B0349091B09051943114310BDAB
:1038F000C41800201F04000010B54C00620D802386
:10390000D218DB00D21A5B057E2A10DD9E3A13DA4C
:10391000CC170903490819435242D14064000134CD
:103920001532202A05DAD0400843604310BD00203C
:1039300010BD0846604310BDC80FC018013810BD47
:1039400018B4044B5B6AFC46019308BD24DF353F85
:1039500000100000C416002070B513231C78012C41
:1039600007D0012C0EDC022C02DC1C4A1C4B9A6492
:1039700070BD00231F2BF4D899001848184A8850AE
:103980000133F7E71748FFF77FFC05001648FFF7FC
:103990007BFC023803789B007F2B19DD80222900F5
:1039A0000F4800F04FFC022CDDD1104B1A88B523D4
:1039B0001B029A4209D10E4B1A880E4B9A4204D12F
:1039C0000D4B1A880D4B9A42CDD00020FDF7F0FF29
:1039D0000B4B0C4A30210C48FDF7CCFF0D3A001080
:1039E000C416002053440000534600005438000021
:1039F000D8380000494600009C38000059460000B5
:103A0000D8810010908200103882001007B56046FF
:103A1000002800D100BE01880A0A0230DF2AFAD14C
:103A2000C9B2820804D3028840880004104300E031
:103A30000068024A5050039007BD0000C4160020E1
:103A40000FB403BC0CBCF0B50124E407634000E0F4
:103A5000F0B50C0DCF0F661E3605891B640503D328
:103A6000C943404200D30131640D03D0661CF60AFD
:103A700007D0E41B00207F00791C89078912803C55
:103A800024031D0DDF0F6E1E36059B1B6D0503D332
:103A9000DB43524200D301336D0D03D06E1CF60A96
:103AA00007D0ED1B00227F007B1C9B079B12803DF3
:103AB0002D032F1B661B58D4A446202E46DA203730
:103AC0001400BC401D00BD40F24033412A43801821
:103AD0005941CB0F05D0C943C04300226442504135
:103AE000514162464D0D28D10D0D07D100281FD040
:103AF000241940414941013A0D0DF9D0640006D323
:103B0000013000D30131002C01D140084000013ABE
:103B10000BD4941CE40A04D112051144DB071944A8
:103B2000F0BDD907204B194300E0D9070020F0BDB4
:103B30000029DDD1002CDBD1F0BD0132C6074008E1
:103B4000CD0728434908002EE1D0D9E73C2E29DAD9
:103B5000203E40371400BC4000D00124F240144302
:103B60001A00BB401C43D317ACE7AC46202F08DA41
:103B700020360400B4400D00B540F84039412843D8
:103B8000A5E73C2F0CDA203F40360400B44000D0BB
:103B90000124F84004430800B1400C43C117EAE790
:103BA00010001900002494E70000F07FF0B50C0D20
:103BB000661E3605891BE60A6405640D02D0651C85
:103BC000ED0A04D0002001210905803C2403A4460D
:103BD0001C0D671E3F05DB1BE70A6405640D02D060
:103BE000651CED0A04D0002201231B05803C240340
:103BF0007740644497B484B296B27443070C7E4312
:103C0000150C6F4380B26843361802D301200004BC
:103C10003F183004350C00197D41844688B29AB2B1
:103C200050430C0C62431F0C7C438EB27E439219AE
:103C300002D301263604A4191604170C361867415E
:103C400001BC81B29AB25143040C62431B0C5C4329
:103C500080B25843121802D3012000042418100423
:103C6000130C401863412D185E410020474106BCEB
:103C700088B293B258430C0C6343120C544389B27C
:103C800051435B1802D301210904641819041A0C6A
:103C9000091862416D1856410020474118BCF902CD
:103CA000720D1143F0026A0D1043ED020A0D03D1AB
:103CB0006D1940414941013B124E9B1B7600B342B6
:103CC0000ED26D0007D301300026714166463543A0
:103CD00001D1400840001B05C918E4072144F0BD8C
:103CE0000BDA013306D1013004D101314F0D01D07F
:103CF0004908F2E7E1070020F0BD01363105002058
:103D0000EBE70000FF030000F0B51C0D671E3F0548
:103D1000DB1BE70A6405640D02D0661CF60A04D0BA
:103D2000002201231B05803C2403D0252D060026FC
:103D3000F6432E661E096E66CE0FF619B44649008C
:103D40004F0D02D07E1CF60A03D000200021403F18
:103D50003F033E1BB600B444013F7F05C91B490821
:103D60002E6F013676089C02950D25437543ED13A1
:103D70007543AD1301356D10F603761B0CB4CC0200
:103D8000450D2C43A2B2B3B25A43270C7B43350CEA
:103D90006F43A4B26C431B1902D3012424043F19BE
:103DA0001C041D0CA4187D4124196D41009A91B288
:103DB000ACB26143170C7C432B0C5F4392B25A4365
:103DC000A41802D301221204BF182204230C521893
:103DD0007B41019C6C431B19520ED9010A434401DB
:103DE000A01A81B2B2B2514303145A43360C734342
:103DF00087B27743D617D21900277E4136049B1924
:103E00001704160C7F185E417316ED18F301002697
:103E100080337541A90F06D16400690AE8055B0A81
:103E2000184309D22FE00422944480337541A90A33
:103E3000A8059B0A184326D3404149412404009A0F
:103E4000019B0D005543641B4343E41A95B286B2AF
:103E50007543170C7E43030C5F4392B25A43B61866
:103E600002D301221204BF183204330C52197B41D1
:103E700052429C41002C02D40022013051414008A2
:103E8000CA071043490802B06246D7079210084B90
:103E9000D218084B9A4203D212058918C919F0BDED
:103EA0000020002A01DC3900F0BD01331905F5E7D7
:103EB000FD030000FE070000624618CA9446002970
:103EC0001ADAC01861415B463B415C46B440524639
:103ED000FA40224344464D4662416B419046994622
:103EE0002B46B3403D41FC401C4352465B46A24139
:103EF000AB4192469B467047C01AA1414B463B419D
:103F00004C46B4404246FA40224354465D46624124
:103F10006B4192469B462B46B3403D41FC401C43BF
:103F200042464B46A241AB4190469946704700201D
:103F300000217047002200B5203200F004F808008C
:103F400000BD000000220B15F1D410B5944600F01E
:103F50002FF81414013400DA0021CB17134C20473A
:103F60006244343A0CD40C2A07DA040091409040A1
:103F700052422032D440214310BDD843D94310BD12
:103F8000203207D40C469440524220321141D04096
:103F9000204310BD0800C917203203D452422032FA
:103FA000104110BD1800190010BD0000613F001045
:103FB0000A0DCC0F531E1B05C91A520503D3C94362
:103FC000404200D30131520D03D0531CDB0A07D00D
:103FD000121B00206400611C89078912803A1203B9
:103FE000014BD21A70470000FF03000051434343C6
:103FF000C9188C46110C83B24B4310B4040C6143B6
:1040000092B280B2504362431C041B0C001910BCD6
:1040100059411304120CC01851416144704700000B
:1040200048404140484000239C46094B5B68184784
:1040300000239C46064B1B68184700239C46044BF4
:10404000DB68184700239C46014B9B68184700001B
:10405000C4170020491A002808D1084670470000FC
:10406000C10FC90700D54042002817D0F44603B459
:104070000B4B1B68984706BC81409E3840428031FC
:1040800007D20B0607D04900490AC0051043084370
:1040900060470130F8E7490A8902F5E770470000F8
:1040A000C4180020034BDB6FFC4618477CDFE94156
:1040B00000100000C417002070B513231D782A4893
:1040C000FFF7E2F80400012D11D0012D09DDA31E38
:1040D0001B789B007F2B40DD80222100234800F0CD
:1040E000B1F82348FFF7C8F8224B186070BD54227E
:1040F00001001E4800F0A6F81F4B1A881F4B9A4279
:104100001CD1A7239B011A881D4B9A4216D11D4B27
:104110001A881D4B9A4211D11C4B1A8894239B017B
:104120009A420BD11A4B1A881A4B9A4206D11A4B53
:104130001A681A4B9A4201D1152307E01848FDF777
:1041400037FC99001748094A885001331F2BF8D9CA
:10415000144A064B1A62DA61B7E7134B134A42213D
:104160001348FDF707FCC04653460000C417002063
:104170004C330000C4180020EE290000C40F0000DA
:10418000C20D0000962B0000C0B50000182B0000E7
:10419000CC2A000010B50000FC2C000051ED876413
:1041A000887B0010B5410010A482001030830010FD
:1041B000D882001007B56046002800D100BE0188F3
:1041C0000A0A0230DF2AFAD1C9B2820804D302886F
:1041D00040880004104300E00068024A50500390F9
:1041E00007BD0000C4170020C30FDB0741000A0E03
:1041F00007D0FF2A08D00909054A89181943400742
:1042000070471900002070470249C918FAE70000FA
:10421000000000380000F07F10B502F02FFD10BD47
:1042200010B502F0F1FC10BD01480421014B184704
:104230001003002099320010014B1B681847000042
:1042400010030020014B5B6818470000100300209A
:10425000F8B507000D001600437C002B02D00024A7
:1042600000200CE003681100280098472DE03B7CFB
:1042700010E0022115483B689847601C0134B442A5
:1042800014DA002CF3DD2B19013B1B780D3B5A424D
:104290005341DBB22A5D0A2AF0D1002BEED1A042B5
:1042A000E7DA211A28183B689847E2E7B04203DAB8
:1042B000311A28183B689847002E06DDAD19013DDC
:1042C0002B780D3B5A4253413B74F8BD9883001044
:1042D00070B505000368002B16D00C4B1C6805E078
:1042E000290004C92000FFF7B3FFE468002C09D0BF
:1042F0002368002BF9D0064B1B68002BF0D0A3429B
:10430000F3D1EDE700232B6070BDC0460010002004
:104310000410002070B505000C000B68802B05D040
:1043200021684B1C23606418257170BD0800FFF7DD
:10433000CFFFF5E710B582B0D0231B061C6801A99A
:10434000064803F005F9002806D1019BA34203D0DB
:10435000024803F00DF9012002B010BDB00B00209F
:1043600010B5024803F0DCF810BDC046B00B0020C9
:10437000F0B5C64600B582B006000D001700FFF785
:10438000D9FF80466B1C02D0184B1C680DE0300032
:1043900002F060FF0500F7E76B46D91D0A230B709A
:1043A00001222000FFF754FFE468002C10D023689E
:1043B000002BF9D00E4B1B68002B01D0A342F3D188
:1043C0002A0031002000FFF743FF002FECD0E3E785
:1043D0004346002B06D1681E8541E8B202B080BC7E
:1043E000B846F0BDFFF7BCFFF5E7C046001000205F
:1043F000041000200C4B1A681300002B0BD08342D2
:1044000002D01A00DB68F8E7002903D1DB68D3602B
:104410000023C36070470029FCD0002A01D0D0607F
:10442000F8E7014B1860F5E70010002010B5064BC7
:104430001C6800E0E468002C04D06368002BF9D00D
:104440009847F7E710BDC0460010002070B5050082
:1044500002F000FF0400012201002800FFF788FF9E
:10446000FFF7E4FF200070BD70B5A2B004000E009D
:10447000FFF760FF05008422002101A8FFF7DCFEA2
:104480003300220001A90848FEF7DEFE040001A85F
:10449000FFF71EFFFFF7CAFF002D02D1200022B058
:1044A00070BDFFF75DFFF9E7154300100FB400B5CD
:1044B00083B004A901C90191FFF7D6FF03B008BC7E
:1044C00004B0184710B500F07FF800F04BF910BDAC
:1044D000F0B583B000241EE06B4607330D221A703E
:1044E000002204E01F78134E376001320133002AA6
:1044F00019D1104EB669B606FBD4F3E71E780D4D00
:104500002E6001320133002A04D10A4DAD69AD0697
:10451000FBD4F3E70134A1420AD9055D064B002222
:104520009B5EAB42D8D06B4607331D700022EAE792
:1045300003B0F0BD00400340C016002070B582B04B
:10454000050000200FE0124B9B69DB06FBD4104BEB
:104550001B68237001320134002AF4D06B46073304
:104560001B780370300088420BDA094B9B691024DA
:1045700022001A401C4204D1461C28186B46DC1D40
:10458000EAE7002801D002B070BD0338FBE7C0465F
:104590000040034070B515001C00FCF799F86B1C37
:1045A00006D1631C09D101210648FFF723FF70BD26
:1045B00002212800FBF78EFFF3E702212000FBF722
:1045C00089FFF0E72003002010B5064B1B78064B4F
:1045D0001B78E1210123002249020448FFF7DAFF9A
:1045E00010BDC046388A00103C8A001000400340CD
:1045F00030B583B005000C0001A9184802F0A8FFEF
:10460000002808D1D0231B061B68019A9A4221D0AA
:10461000124802F0ADFF002001F0E2FD002807D1B2
:10462000032464420D4802F07BFF200003B030BD3C
:10463000002001F0F9FD002802D103246442F1E7D3
:1046400022002900002001F0FFFD041EEAD103240E
:104650006442E7E703246442E7E7C046A01600206F
:1046600010B50021054802F073FF002800D110BDED
:1046700001F062FB014802F053FFF8E7A0160020AA
:10468000F0B5C64600B582B080460D0001A92E489F
:1046900002F05EFF002808D1D0231B061B68019A98
:1046A0009A420FD0284802F063FF002001F098FDE5
:1046B000002847D1254B002000211860596022486E
:1046C00002F02EFF02B080BCB846F0BD01F034FB12
:1046D000002001F0D1FD002001F082FD0028EED085
:1046E000002001F047FE00281DD0AC42E7DA2E1B67
:1046F000002001F03FFE0200864200DC3200002A6A
:10470000E4D043461919002001F018FE060001F01C
:1047100013FB002001F0B0FDA419FCF75FFD0B4B6B
:1047200018605960E1E7FCF759FD084B1E685F68A7
:10473000074A002392197B419942C0D8D5D19042B3
:10474000D3D9BCE70024D0E7A0160020D00B00206E
:1047500020A1070010B51F20FDF746FBFA208000BE
:10476000002110BD70B584B01C4B1B7802F046F8D8
:104770001B491F20FDF748FB01211F20FDF72CFBE3
:104780001848FCF731FEFCF7C7FA0600FCF726FDD7
:1047900004000D00FA229200002312196B41994285
:1047A00002D804D1904202D901225242D3170121EA
:1047B0000291002101910C4900913000FCF706FBA9
:1047C0000400631E9C41E4B2002802D1200004B022
:1047D00070BD01210548FFF70DFEF7E7408A001084
:1047E00061460010A0160020554700103403002039
:1047F000004870477C8400100048704730840010E7
:1048000010B500280BD10F4B0F4A5A8001230133FA
:104810005B00C022920013430A48038010BD0428A5
:104820000ED88000094BC4580023122BEFD8E25C4D
:10483000002AECD00133590002484252DBB2F4E7BF
:104840000020EBE7D80F002009040000908400103E
:104850007F220240C3093420584368235343C018C1
:10486000014BC0187047C0460C10002010B582B034
:1048700001AB084A1A80002408E001AB185DFFF77D
:10488000E7FF01234371002303750134012CF4D9A0
:1048900002B010BD0080FFFF10B5C36A402B00D8E6
:1048A000402316490A680261D3180B60990604D0A8
:1048B0003F218B43403311490B60104B19688B0625
:1048C00010D10F4B5A404B40802149018B420FD8E9
:1048D0003023C35C9B061A43A0231B061A4383683C
:1048E0001A6010BD074B084A59210848FDF742F8E5
:1048F000074B054A5B210548FDF73CF88C16002064
:1049000000001050A4840010D0850010D484001042
:104910003885001070B504007F2008404EB2CD09E4
:1049200021716570F143C90FE170A07000281BD19F
:1049300001216171012B19D0402A1FD8E262302277
:10494000A354002D1ED0C3001B4A94466344E36069
:10495000E36800221A60A378002B19D1A360174BDB
:1049600023610123237070BD0021E2E78021C9008B
:104970008A42E3D311001248FDF71AF811001048DB
:10498000FDF716F8C3000F4A94466344E360DFE77F
:10499000002E09DB0138C0000B4B9C466044A06030
:1049A0002000FFF779FFDCE70138C000074B9C4689
:1049B0006044A060F4E7C046800010500001105031
:1049C0006C850010840010500C001050080010502E
:1049D00070B504000D001600FFF73AFF33002A00FF
:1049E0002100FFF797FF70BDF0B5CE46474680B572
:1049F00083B0264B9B6D9846002701241DE0244B75
:104A0000244ADF212448FCF7B5FF34235E433433C6
:104A10004A465343F618214B9E19F2693179012316
:104A200000930023002000F068FE280000F020FA28
:104A30004346A3439846640001374346002B20D0E9
:104A40001F2F1ED843461C42F5D0104BDB6D1C4275
:104A5000D5D1134B9C657B0801263E4072425641DE
:104A6000F6B2FF221A40914634257543682353431A
:104A7000ED180A4BED18280000F0B8FA0028D7D03E
:104A8000C3E703B0C0BCB946B046F0BD000011504A
:104A900094850010E4850010D48400100C100020D0
:104AA0000030115070B51D4A9823D45880235B0202
:104AB00025001D401C4206D1E30612D4E30415D4A0
:104AC000A54225D170BDFFF7D1FE01221449002077
:104AD00000F0F9FD134B802292021A6580256D02C9
:104AE000EAE710231D43FFF77FFFE7E700230E4AA5
:104AF00013700A4A136080235B011D4301220121C8
:104B0000002000F0CDFD074B802212031A65D7E785
:104B1000290061400548FCF74BFFC04600001150DA
:104B20000000105000301150BA160020A08500106F
:104B300070B50C0015001E00FFF78AFE33002A0036
:104B4000210000F07FFA70BD10B5FFF78FFE012342
:104B5000002200218020FFF7EBFF10BD10B50400FC
:104B6000037D002B11D18378002B05D14378002BD6
:104B700012D00122094B9A668022120108492000B6
:104B800000F080F90123237510BD8421054B064AEE
:104B900049000648FCF7EEFE0222EBE70020115028
:104BA000FFF7FFFFB4850010FC850010D4840010CF
:104BB00010B5FFF74DFEFFF7D1FF10BD10B5040093
:104BC0008378002B05D14378002B0AD00122064BB5
:104BD0009A6600220549200000F054F9002323754D
:104BE00010BD0222F3E7C04600301150FFF7FFFF6F
:104BF00010B5FFF72DFEFFF7E1FF10BD10B500283F
:104C000004D101210520FDF7E7F810BD7E21034BFB
:104C1000034AFF310348FCF7ADFEC046C4850010CF
:104C20001C860010D484001010B5002804D1064B57
:104C30001970FFF789FF10BDC521044B044A4900D4
:104C40000448FCF797FEC046BA160020C485001041
:104C50002C860010D484001010B5002804D1064B17
:104C600080225202DA6410BDD221044B044A49006A
:104C70000448FCF77FFEC04600201150C485001098
:104C80003C860010D484001010B5041E28D100F01A
:104C9000C7F817490520FDF7B7F8D022D200002148
:104CA0001448FFF7C9FA144B00221A70134B144A28
:104CB0001A60002240210020FFF78AFE00224021D6
:104CC0008020FFF785FE0F4B01221A648022920597
:104CD000DA6490220C4999502000FFF7BDFF10BD07
:104CE00060210A4B0A4AFF310A48FCF743FEC046DE
:104CF000A54A00100C100020BA1600208C160020C7
:104D0000800110500000115010100100C4850010E7
:104D100010860010D484001010B5002808D10B783C
:104D20005B0602D14B78052B09D0FFF79FFD10BD24
:104D3000B021054B054AFF310548FCF71BFE054B2A
:104D40001A78054B1A60F0E7C485001048860010F9
:104D5000D4840010BA1600200000115010B50B00CA
:104D600000280DD10A794879072101400902114331
:104D7000DA789207920F9878FFF72AFE012010BD8B
:104D8000C021034B034AFF310348FCF7F3FDC04643
:104D9000C485001064860010D484001010B504008F
:104DA000080011001A00002C04D10123FFF7C0FEF7
:104DB000012010BDE321034B034A49000348FCF7DF
:104DC000D9FDC046C485001074860010D48400103C
:104DD00010B5002803D10800FFF7EAFE10BDD0216E
:104DE000024B034AFF310348FCF7C4FDC4850010A1
:104DF00084860010D484001010B5002803D1080068
:104E0000FFF7F6FE10BDEB21024B034A49000348B1
:104E1000FCF7B0FDC485001094860010D484001007
:104E200010B580235B040D4A13600D4A13600D4BCF
:104E30009A6880235B049343F9D10B4C9C22002198
:104E40002000FFF7F9F98022520100210748FFF7FF
:104E5000F3F9092363670333A36710BD00E0004043
:104E600000F0004000C00040000011500000105051
:104E7000002303754375322283548361C361036247
:104E80008362704710B5002902D0C3681B681940BF
:104E9000002A0FD0114353050CD5C26813685B0577
:104EA0000BD40A4B0B401360FFE7FFE7FFE7FFE778
:104EB000FFE7FFE7C368196010BD817843789B0066
:104EC000034A9A580348FCF773FDC046FFFBFFFFF7
:104ED00048030020AC86001070B50400056A8022EB
:104EE000D2002A43C378002B14D06379002B1ED044
:104EF000802189010A4301214B4063712423E35C33
:104F0000002B02D08023DB011A4300212000FFF791
:104F1000B9FF70BD836AC2699446634419002A00D0
:104F20000069FFF78FF9842212022A43DDE700218E
:104F3000E0E770B504000E001500437D002B18D18A
:104F4000A5610023E3612A1CABB2402B00D94022AB
:104F500092B2226201236375A662AD1A6A4255417C
:104F60002333E55401330022E2542000FFF7B4FF5D
:104F700070BDFFF77DFFE3E770B50400C3681B68F1
:104F80009D05AD0DC278002A13D11B040BD4C36953
:104F90005B19C361E378002B04D0236AAB4201D9CB
:104FA000E369A36170BD0D4B0D4ABF210D48FCF7AD
:104FB000E1FC1B040CD5836AC26994466344180063
:104FC0002A002169FFF73EF9E3695B19E361E1E734
:104FD000054B034AC9210348FCF7CCFCCC860010E2
:104FE000D0870010EC8600105087001070B50400C8
:104FF000457D002D17D0FFF7BFFFA169E2698B1A2D
:10500000402B00D940232362D318CB1A5842434186
:105010002420235491420BD303D02000FFF75CFFE0
:105020000025280070BD8178034A0448FCF7C0FCC5
:105030000348FCF7BDFCC046480300207087001001
:105040009C87001010B50478002C04D0002B09D0E8
:10505000FFF76FFF10BD0C21044B054AFF310548D7
:10506000FCF788FCFFF7C2FFF4E7C046C0870010DA
:10507000E8870010EC86001070B5002503E00E787C
:105080007519ADB2891995420AD24C78052CF6D122
:105090008E787A34344064000419F609A355EEE79B
:1050A00070BD000070B505001B4C372200212000A8
:1050B000FFF7C2F8E01C1022FF21FFF7BDF8200027
:1050C00013301222FF21FFF7B7F800F0D3FF0024BE
:1050D0000EE0E200121B9200104B1B689B1802E0CE
:1050E000230010E000235B68280098470134E4B2F5
:1050F0000B4B1B78A3420ED30A4A002AF0D0A342DE
:10510000E7D8E31ADBB2002BECD1DA00D21A920016
:10511000054B9B18E7E770BD580F0020280C0020B6
:10512000B8160020000000009489001070B505003A
:105130000C001600086900F0A7FFE36831002800A2
:10514000984770BDF0B5D6464F464646C0B5824634
:105150000139C8B2FFF750FB002802D04378022B78
:105160000AD05F4A5F496048FFF7A0F90020E0BC21
:10517000BA46B146A846F0BDC5796B1101225B4C19
:105180001340190123781026B343AD112A40520170
:105190000B4320218B43134323700500093582788C
:1051A000C3781B0213438146994478E02B78A846C4
:1051B000ED187BE0CA2292004A494B48FFF776F986
:1051C0000020D4E7E200121B9200494B1B689B1899
:1051D00002E0230014E000239B68320029005046BF
:1051E0009847071E14D10134E4B2424B1B78A34206
:1051F00051D3414A002AECD0A342E3D8E31ADBB2F0
:10520000002BE8D1DA00D21A92003C4B9B18E3E75E
:10521000082818D9864216D3AA78344B9B18DB7815
:10522000FF2B17D1314B9B18DC704346002B2AD043
:105230009A78AB789A4214D143461A796B799A429C
:105240000FD101231BE02E4A26492748FFF72EF9EC
:1052500000208CE72B4A23492348FFF727F9002039
:1052600085E7294A1F492048FFF720F900207EE7FB
:10527000A97859181D4A5218D4700133DBB242463E
:10528000D2789A42F4D8194823003A002900133002
:10529000FFF7F2FEED19174B1B78A3420FD34D45D4
:1052A00015D26B780B2B81D0002398466B78042B9A
:1052B00000D07FE74B465E1BB6B2002495E7D522AF
:1052C000920008490848FFF7F1F800204FE70F4B1C
:1052D000002B03D000E000BF012048E7012046E793
:1052E0001303000044890010FC870010580F0020B1
:1052F000280C0020B816002000000000948900103F
:1053000036030000390300004203000000000000E3
:10531000F0B583B005000C00CB7888780F2B5ED8F1
:105320009B00324AD3589F46FFF762FA02001223CD
:105330002100280000F04AFE52E02D4B002B10D037
:1053400000E000BF06006B469F1D811C0222380052
:10535000FEF778FF3B8832002100280000F036FE7F
:105360003EE000203CE0FFF747FA061E0DD06B46FA
:105370009F1D811C02223800FEF764FF3B8832002B
:105380002100280000F022FE2AE01A4A1A491B4890
:10539000FFF78CF8002023E00B79497909021943C3
:1053A000FFF72EFA021E1DD003782100280000F01E
:1053B0000DFE15E0124B002B16D000E000BF021EC0
:1053C00005D003782100280000F000FE08E0F0324C
:1053D000920009490948FFF769F8002000E0002021
:1053E00003B0F0BD0020FBE70020F9E714880010AF
:1053F00000000000A203000058890010FC87001084
:1054000000000000024B5878431E9841C0B270471C
:10541000580F0020024B18784007C00F7047C04655
:10542000580F002010B5372200212348FEF704FF53
:10543000224C2000FBF7D8FF214B1C60214C2000A0
:105440001830FBF7E4FF200001F0D1FB1E4B1C607D
:105450001E4B002B04D01E4800E000BF1D4B1860FF
:1054600000240DE0E200121B92001A4B1B689B18EF
:1054700002E023000FE000231B6898470134E4B2E8
:10548000134B1B78A3420ED3104A002AF1D0A3423B
:10549000E8D8E31ADBB2002BEDD1DA00D21A920081
:1054A0000D4B9B18E8E70020FFF7EEFB0020FFF70D
:1054B000A5FB012010BDC046580F0020100F002092
:1054C000900F002050030020940F002000000000E7
:1054D000B8160020280C00209489001010B5010097
:1054E0004378042B00D16CE005D8022B32D0032B7B
:1054F00000D09FE010BD052B00D09BE0624B1B78D5
:10550000DB07F7D5604A13780420834313705F4BA1
:105510001C686369002B00D086E0A269EFF310805D
:1055200072B61368002BFCD0BFF35F8FE0612000E0
:1055300001F0F1FAA269E369BFF35F8F0021116006
:1055400083F310880028D5D1AD2251495148FEF788
:10555000ADFFCFE74C4B1A78012082431A701A78BE
:10556000013082431A7000225A701A780230824346
:105570001A70464B1C686369002B1CD1A269EFF3BB
:10558000108072B61368002BFCD0BFF35F8FE06110
:10559000200001F0C0FAA269E369BFF35F8F002128
:1055A000116083F310880028A4D1AD22384939480E
:1055B000FEF77CFF9EE7384B354AA7213748FCF7BA
:1055C000D9F9314B1B78DB0700D493E72E4A1378C7
:1055D0000420034313702D4B1C686369002B1DD1FD
:1055E000A269EFF3108072B61368002BFCD0BFF3F2
:1055F0005F8FE061200001F08EFAA269E369BFF3DA
:105600005F8F0021116083F31088002800D071E7BC
:10561000AD221F491F48FEF749FF6BE71E4B1C4A8E
:10562000A7211E48FCF7A6F91B4B194AA7211B48C6
:10563000FCF7A0F9154B1C686369002B1DD1A2690A
:10564000EFF3108072B61368002BFCD0BFF35F8FAE
:10565000E061200001F05FFAA269E369BFF35F8FA8
:105660000021116083F31088002800D042E7AD22AA
:1056700007490848FEF71AFF3CE7074B044AA721F1
:105680000648FCF777F9C046580F0020940F002019
:1056900010890010FC8700105488001064880010E6
:1056A00070B584B006000D0014000C22002101A882
:1056B000FEF7C2FD6B461E715D71210001A8FFF768
:1056C0000DFF04B070BD70B584B006000D0014006D
:1056D0000C22002101A8FEF7AFFD6B461E710623C8
:1056E0006A4653710822290002A8FEF7ABFD21008B
:1056F00001A8FFF7F3FE04B070BDF0B5CE464746F3
:1057000080B585B080460F0016001D000CAB1B78DD
:10571000994601AC082200212000FEF78DFD43468A
:105720002370072363702771A660657149462000C6
:10573000FFF7D4FE05B0C0BCB946B046F0BD10B509
:10574000FFF70CFB10BD0000F0B5D6464F464646AD
:10575000C0B581460C0017009846089B9A46002564
:1057600016E0184A18491948FEF7A0FE0026300036
:10577000E0BCBA46B146A846F0BD154A12491348E6
:10578000FEF794FEF3E7524613702378E4180135D0
:10579000AF4214DD6378052BE3D1E1788907890FE7
:1057A0004145DED121004846FFF7C9FF061EE4D07F
:1057B000A378DA09012AE6D1099A1370E5E70126F0
:1057C000D5E7C0462D04000070890010FC8700104A
:1057D0002E04000070B57F250D40CC096A001E4BD9
:1057E0009B181B1920335B79DB07DE0F002B30D1B0
:1057F000194B9B181B1920335B795B072AD4174B75
:1058000018680121494201F0ABFE6A00124B9B1857
:105810001B1920335B79DB0708D40F4B9B181B192E
:1058200020335B795B0712D5002600E00026002EAE
:1058300008D06D0008494D192C19203463790422D1
:1058400013436371054B186801F06AFE02E00126FC
:10585000EDE70026300070BD580F0020900F0020AB
:1058600070B57F250D40CC09154B186801214942C0
:1058700001F076FE6A00134B9B181B1920335B79ED
:10588000DB0708D40F4B9B181B1920335B795B0790
:1058900013D4002600E00026002E08D06D00094930
:1058A0004D192C1920346379042293436371044BFE
:1058B000186801F035FE300070BD0126ECE7C046E7
:1058C000900F0020580F0020F0B5C64600B582B0FA
:1058D00001937F250D40CE096F00174CE419A419E0
:1058E00020346479E4071DD46F00134CE419A41923
:1058F000203463790127BC4667463B436371019BB3
:10590000FFF74CFA002813D16D000B4B5D19AE194F
:105910002036737901229343737173790332934371
:10592000737105E0054A06490648FEF7BFFD0020F1
:1059300002B080BCB846F0BD580F002095040000AE
:1059400084890010FC87001070B57F240C40CD09BD
:10595000FFF73EFA6400064B1B195B1920335A7996
:1059600002210A435A715A7901210A435A7170BDC2
:10597000580F002070B57F240C40CD09FFF73CFA8A
:105980006400064B1B195B1920335A7902218A43A4
:105990005A715A7901398A435A7170BD580F0020E3
:1059A0007F220A40CB09520003498918C9182031C7
:1059B00048798007C00F7047580F0020F0B5C646E1
:1059C00000B582B005000C00002000F05DFB2278DD
:1059D00060231340602B12D0402B17D02278D206C0
:1059E000D20E012A00D1CAE0022A00D104E1002A25
:1059F0001CD00026300002B080BCB846F0BDC14AC1
:105A0000C149C248FEF752FD0026F3E7C04B002B08
:105A100000D164E1BF4B002B02D0180000F034FB32
:105A20002100280000E000BF0600E3E7202B0AD099
:105A3000002B00D05BE16378092B00D959E19B0072
:105A4000B54AD3589F4623790F2B00D949E1B34A71
:105A5000D318DB78B24A002A05D0B24A12789342B2
:105A600012D39B1ADBB2002B00D03CE1D900CB1A39
:105A70009B00AD49C918002900D136E12200280059
:105A8000FFF754FB0600B5E7D900CB1A9B00A74AE5
:105A90001168C918EFE7200000F0FCFAA17828008F
:105AA000FFF7C2F89D4A137802210B4313700126B9
:105AB000A0E79A4B5B786A460632137001232100F7
:105AC000280000F083FA012694E7A778934B5B78CF
:105AD000002B01D1002F07D1904B5F7021002800CF
